{
  "_format": "hh-sol-artifact-1",
  "contractName": "PredictionMarket",
  "sourceName": "contracts/PredictionMarket.sol",
  "abi": [
    {
      "inputs": [
        {
          "internalType": "address",
          "name": "_worldId",
          "type": "address"
        },
        {
          "internalType": "address",
          "name": "_usdc",
          "type": "address"
        }
      ],
      "stateMutability": "nonpayable",
      "type": "constructor"
    },
    {
      "inputs": [],
      "name": "AlreadyClaimed",
      "type": "error"
    },
    {
      "inputs": [],
      "name": "MarketAlreadyResolved",
      "type": "error"
    },
    {
      "inputs": [],
      "name": "MarketDoesNotExist",
      "type": "error"
    },
    {
      "inputs": [],
      "name": "MarketEnded",
      "type": "error"
    },
    {
      "inputs": [],
      "name": "MarketNotEnded",
      "type": "error"
    },
    {
      "inputs": [],
      "name": "MarketNotResolved",
      "type": "error"
    },
    {
      "inputs": [],
      "name": "NoPayout",
      "type": "error"
    },
    {
      "inputs": [],
      "name": "StakeExceedsMax",
      "type": "error"
    },
    {
      "inputs": [],
      "name": "Unauthorized",
      "type": "error"
    },
    {
      "inputs": [],
      "name": "ZeroAmount",
      "type": "error"
    },
    {
      "anonymous": false,
      "inputs": [
        {
          "indexed": true,
          "internalType": "address",
          "name": "agent",
          "type": "address"
        }
      ],
      "name": "AgentRegistered",
      "type": "event"
    },
    {
      "anonymous": false,
      "inputs": [
        {
          "indexed": true,
          "internalType": "uint256",
          "name": "marketId",
          "type": "uint256"
        },
        {
          "indexed": false,
          "internalType": "uint256",
          "name": "nullifierHash",
          "type": "uint256"
        },
        {
          "indexed": false,
          "internalType": "bool",
          "name": "isYes",
          "type": "bool"
        },
        {
          "indexed": false,
          "internalType": "uint256",
          "name": "amount",
          "type": "uint256"
        }
      ],
      "name": "BetPlaced",
      "type": "event"
    },
    {
      "anonymous": false,
      "inputs": [
        {
          "indexed": true,
          "internalType": "uint256",
          "name": "marketId",
          "type": "uint256"
        },
        {
          "indexed": false,
          "internalType": "address",
          "name": "creator",
          "type": "address"
        },
        {
          "indexed": false,
          "internalType": "string",
          "name": "question",
          "type": "string"
        },
        {
          "indexed": false,
          "internalType": "int256",
          "name": "lat",
          "type": "int256"
        },
        {
          "indexed": false,
          "internalType": "int256",
          "name": "lng",
          "type": "int256"
        },
        {
          "indexed": false,
          "internalType": "uint256",
          "name": "endTime",
          "type": "uint256"
        }
      ],
      "name": "MarketCreated",
      "type": "event"
    },
    {
      "anonymous": false,
      "inputs": [
        {
          "indexed": true,
          "internalType": "uint256",
          "name": "marketId",
          "type": "uint256"
        },
        {
          "indexed": false,
          "internalType": "bool",
          "name": "outcome",
          "type": "bool"
        }
      ],
      "name": "MarketResolved",
      "type": "event"
    },
    {
      "anonymous": false,
      "inputs": [
        {
          "indexed": true,
          "internalType": "uint256",
          "name": "marketId",
          "type": "uint256"
        },
        {
          "indexed": false,
          "internalType": "uint256",
          "name": "nullifierHash",
          "type": "uint256"
        },
        {
          "indexed": false,
          "internalType": "uint256",
          "name": "amount",
          "type": "uint256"
        }
      ],
      "name": "PayoutClaimed",
      "type": "event"
    },
    {
      "inputs": [],
      "name": "MAX_STAKE_PER_HUMAN",
      "outputs": [
        {
          "internalType": "uint256",
          "name": "",
          "type": "uint256"
        }
      ],
      "stateMutability": "view",
      "type": "function"
    },
    {
      "inputs": [
        {
          "internalType": "uint256",
          "name": "marketId",
          "type": "uint256"
        },
        {
          "internalType": "uint256",
          "name": "nullifierHash",
          "type": "uint256"
        }
      ],
      "name": "claimPayout",
      "outputs": [],
      "stateMutability": "nonpayable",
      "type": "function"
    },
    {
      "inputs": [
        {
          "internalType": "string",
          "name": "question",
          "type": "string"
        },
        {
          "internalType": "int256",
          "name": "lat",
          "type": "int256"
        },
        {
          "internalType": "int256",
          "name": "lng",
          "type": "int256"
        },
        {
          "internalType": "uint256",
          "name": "endTime",
          "type": "uint256"
        }
      ],
      "name": "createMarket",
      "outputs": [
        {
          "internalType": "uint256",
          "name": "marketId",
          "type": "uint256"
        }
      ],
      "stateMutability": "nonpayable",
      "type": "function"
    },
    {
      "inputs": [
        {
          "internalType": "uint256",
          "name": "marketId",
          "type": "uint256"
        }
      ],
      "name": "getMarket",
      "outputs": [
        {
          "components": [
            {
              "internalType": "uint256",
              "name": "id",
              "type": "uint256"
            },
            {
              "internalType": "address",
              "name": "creator",
              "type": "address"
            },
            {
              "internalType": "string",
              "name": "question",
              "type": "string"
            },
            {
              "internalType": "int256",
              "name": "lat",
              "type": "int256"
            },
            {
              "internalType": "int256",
              "name": "lng",
              "type": "int256"
            },
            {
              "internalType": "uint256",
              "name": "endTime",
              "type": "uint256"
            },
            {
              "internalType": "bool",
              "name": "resolved",
              "type": "bool"
            },
            {
              "internalType": "bool",
              "name": "outcome",
              "type": "bool"
            },
            {
              "internalType": "uint256",
              "name": "totalYesStake",
              "type": "uint256"
            },
            {
              "internalType": "uint256",
              "name": "totalNoStake",
              "type": "uint256"
            }
          ],
          "internalType": "struct PredictionMarket.Market",
          "name": "",
          "type": "tuple"
        }
      ],
      "stateMutability": "view",
      "type": "function"
    },
    {
      "inputs": [
        {
          "internalType": "uint256",
          "name": "marketId",
          "type": "uint256"
        },
        {
          "internalType": "uint256",
          "name": "nullifierHash",
          "type": "uint256"
        }
      ],
      "name": "getPosition",
      "outputs": [
        {
          "components": [
            {
              "internalType": "uint256",
              "name": "yesAmount",
              "type": "uint256"
            },
            {
              "internalType": "uint256",
              "name": "noAmount",
              "type": "uint256"
            },
            {
              "internalType": "bool",
              "name": "claimed",
              "type": "bool"
            }
          ],
          "internalType": "struct PredictionMarket.Position",
          "name": "",
          "type": "tuple"
        }
      ],
      "stateMutability": "view",
      "type": "function"
    },
    {
      "inputs": [],
      "name": "governanceToken",
      "outputs": [
        {
          "internalType": "contract OracleGovernanceToken",
          "name": "",
          "type": "address"
        }
      ],
      "stateMutability": "view",
      "type": "function"
    },
    {
      "inputs": [
        {
          "internalType": "uint256",
          "name": "",
          "type": "uint256"
        }
      ],
      "name": "markets",
      "outputs": [
        {
          "internalType": "uint256",
          "name": "id",
          "type": "uint256"
        },
        {
          "internalType": "address",
          "name": "creator",
          "type": "address"
        },
        {
          "internalType": "string",
          "name": "question",
          "type": "string"
        },
        {
          "internalType": "int256",
          "name": "lat",
          "type": "int256"
        },
        {
          "internalType": "int256",
          "name": "lng",
          "type": "int256"
        },
        {
          "internalType": "uint256",
          "name": "endTime",
          "type": "uint256"
        },
        {
          "internalType": "bool",
          "name": "resolved",
          "type": "bool"
        },
        {
          "internalType": "bool",
          "name": "outcome",
          "type": "bool"
        },
        {
          "internalType": "uint256",
          "name": "totalYesStake",
          "type": "uint256"
        },
        {
          "internalType": "uint256",
          "name": "totalNoStake",
          "type": "uint256"
        }
      ],
      "stateMutability": "view",
      "type": "function"
    },
    {
      "inputs": [],
      "name": "nextMarketId",
      "outputs": [
        {
          "internalType": "uint256",
          "name": "",
          "type": "uint256"
        }
      ],
      "stateMutability": "view",
      "type": "function"
    },
    {
      "inputs": [
        {
          "internalType": "bytes",
          "name": "",
          "type": "bytes"
        },
        {
          "internalType": "bytes",
          "name": "report",
          "type": "bytes"
        }
      ],
      "name": "onReport",
      "outputs": [],
      "stateMutability": "nonpayable",
      "type": "function"
    },
    {
      "inputs": [],
      "name": "oracle",
      "outputs": [
        {
          "internalType": "address",
          "name": "",
          "type": "address"
        }
      ],
      "stateMutability": "view",
      "type": "function"
    },
    {
      "inputs": [],
      "name": "owner",
      "outputs": [
        {
          "internalType": "address",
          "name": "",
          "type": "address"
        }
      ],
      "stateMutability": "view",
      "type": "function"
    },
    {
      "inputs": [
        {
          "internalType": "uint256",
          "name": "marketId",
          "type": "uint256"
        },
        {
          "internalType": "bool",
          "name": "isYes",
          "type": "bool"
        },
        {
          "internalType": "uint256",
          "name": "amount",
          "type": "uint256"
        },
        {
          "internalType": "uint256",
          "name": "root",
          "type": "uint256"
        },
        {
          "internalType": "uint256",
          "name": "nullifierHash",
          "type": "uint256"
        },
        {
          "internalType": "uint256[8]",
          "name": "proof",
          "type": "uint256[8]"
        }
      ],
      "name": "placeBet",
      "outputs": [],
      "stateMutability": "nonpayable",
      "type": "function"
    },
    {
      "inputs": [
        {
          "internalType": "uint256",
          "name": "marketId",
          "type": "uint256"
        },
        {
          "internalType": "bool",
          "name": "isYes",
          "type": "bool"
        },
        {
          "internalType": "uint256",
          "name": "amount",
          "type": "uint256"
        }
      ],
      "name": "placeBetAgent",
      "outputs": [],
      "stateMutability": "nonpayable",
      "type": "function"
    },
    {
      "inputs": [
        {
          "internalType": "uint256",
          "name": "",
          "type": "uint256"
        },
        {
          "internalType": "uint256",
          "name": "",
          "type": "uint256"
        }
      ],
      "name": "positions",
      "outputs": [
        {
          "internalType": "uint256",
          "name": "yesAmount",
          "type": "uint256"
        },
        {
          "internalType": "uint256",
          "name": "noAmount",
          "type": "uint256"
        },
        {
          "internalType": "bool",
          "name": "claimed",
          "type": "bool"
        }
      ],
      "stateMutability": "view",
      "type": "function"
    },
    {
      "inputs": [
        {
          "internalType": "address",
          "name": "agent",
          "type": "address"
        }
      ],
      "name": "registerAgent",
      "outputs": [],
      "stateMutability": "nonpayable",
      "type": "function"
    },
    {
      "inputs": [
        {
          "internalType": "address",
          "name": "",
          "type": "address"
        }
      ],
      "name": "registeredAgents",
      "outputs": [
        {
          "internalType": "bool",
          "name": "",
          "type": "bool"
        }
      ],
      "stateMutability": "view",
      "type": "function"
    },
    {
      "inputs": [
        {
          "internalType": "uint256",
          "name": "marketId",
          "type": "uint256"
        },
        {
          "internalType": "bool",
          "name": "outcome",
          "type": "bool"
        }
      ],
      "name": "resolveMarket",
      "outputs": [],
      "stateMutability": "nonpayable",
      "type": "function"
    },
    {
      "inputs": [
        {
          "internalType": "address",
          "name": "_token",
          "type": "address"
        }
      ],
      "name": "setGovernanceToken",
      "outputs": [],
      "stateMutability": "nonpayable",
      "type": "function"
    },
    {
      "inputs": [
        {
          "internalType": "address",
          "name": "_oracle",
          "type": "address"
        }
      ],
      "name": "setOracle",
      "outputs": [],
      "stateMutability": "nonpayable",
      "type": "function"
    },
    {
      "inputs": [],
      "name": "usdc",
      "outputs": [
        {
          "internalType": "contract IERC20",
          "name": "",
          "type": "address"
        }
      ],
      "stateMutability": "view",
      "type": "function"
    },
    {
      "inputs": [],
      "name": "worldId",
      "outputs": [
        {
          "internalType": "contract IWorldID",
          "name": "",
          "type": "address"
        }
      ],
      "stateMutability": "view",
      "type": "function"
    }
  ],
  "bytecode": "0x60c06040523480156200001157600080fd5b5060405162001b6138038062001b6183398101604081905262000034916200008b565b6001600160a01b039182166080521660a05260008054336001600160a01b03199182168117909255600180549091169091179055620000c3565b80516001600160a01b03811681146200008657600080fd5b919050565b600080604083850312156200009f57600080fd5b620000aa836200006e565b9150620000ba602084016200006e565b90509250929050565b60805160a051611a5c62000105600039600081816101c80152818161063101528181610b690152610fea0152600081816102cc01526104d20152611a5c6000f3fe608060405234801561001057600080fd5b50600436106101375760003560e01c8063751de421116100b85780638da5cb5b1161007c5780638da5cb5b14610327578063b1283e771461033a578063e747d5e114610363578063eb44fdd314610376578063f857017014610396578063f96dae0a146103a957600080fd5b8063751de42114610290578063753e9ef0146102c75780637adbf973146102ee5780637dc0d1d014610301578063805f21321461031457600080fd5b806357bde446116100ff57806357bde4461461021957806359ca2ae31461022c5780636a425a2c1461023f57806370e68b051461025257806374ee82fc1461025d57600080fd5b80632675e94b1461013c578063306b9bb91461019b5780633573b2e7146101b05780633e413bee146101c3578063406ef2ef14610202575b600080fd5b61017961014a3660046113c6565b600560209081526000928352604080842090915290825290208054600182015460029092015490919060ff1683565b6040805193845260208401929092521515908201526060015b60405180910390f35b6101ae6101a93660046113e8565b6103bc565b005b6101ae6101be366004611429565b610432565b6101ea7f000000000000000000000000000000000000000000000000000000000000000081565b6040516001600160a01b039091168152602001610192565b61020b60035481565b604051908152602001610192565b6101ae61022736600461148d565b61076b565b61020b61023a366004611506565b6107bc565b6101ae61024d366004611560565b610a1a565b61020b6305f5e10081565b61028061026b3660046113e8565b60066020526000908152604090205460ff1681565b6040519015158152602001610192565b6102a361029e3660046113c6565b610ca1565b60408051825181526020808401519082015291810151151590820152606001610192565b6101ea7f000000000000000000000000000000000000000000000000000000000000000081565b6101ae6102fc3660046113e8565b610d11565b6001546101ea906001600160a01b031681565b6101ae610322366004611598565b610d5d565b6000546101ea906001600160a01b031681565b61034d610348366004611604565b610da8565b6040516101929a99989796959493929190611663565b6101ae6103713660046113c6565b610e90565b610389610384366004611604565b611117565b60405161019291906116cb565b6101ae6103a43660046113e8565b61129f565b6002546101ea906001600160a01b031681565b6000546001600160a01b031633146103e6576040516282b42960e81b815260040160405180910390fd5b6001600160a01b038116600081815260066020526040808220805460ff19166001179055517f82d0829d9d481e4cb9913897f9b9c903271c4db68c7b3324071d2a7e3b2c5ff09190a250565b8360000361045357604051631f2a200560e01b815260040160405180910390fd5b600086815260046020526040812060058101549091036104865760405163b0cfa44760e01b815260040160405180910390fd5b600681015460ff16156104ac5760405163aa43cb2d60e01b815260040160405180910390fd5b806005015442106104d05760405163262b753160e21b815260040160405180910390fd5b7f00000000000000000000000000000000000000000000000000000000000000006001600160a01b0316633bc778e3856001336001600160a01b031687604051602001610544906e6170705f6c6f63616c6f7261636c6560881b8152681c1b1858d94b58995d60ba1b600f82015260180190565b60408051601f198184030181529082905280516020909101206001600160e01b031960e088901b16825261058095949392918a90600401611775565b60006040518083038186803b15801561059857600080fd5b505afa1580156105ac573d6000803e3d6000fd5b505050600088815260056020908152604080832087845290915281206001810154815491935088916105de91906117c3565b6105e891906117c3565b90506305f5e10081111561060f57604051631e1d490b60e11b815260040160405180910390fd5b6040516323b872dd60e01b8152336004820152306024820152604481018890527f00000000000000000000000000000000000000000000000000000000000000006001600160a01b0316906323b872dd906064016020604051808303816000875af1158015610682573d6000803e3d6000fd5b505050506040513d601f19601f820116820180604052508101906106a691906117d6565b5087156106e757868260000160008282546106c191906117c3565b92505081905550868360070160008282546106dc91906117c3565b9091555061071c9050565b868260010160008282546106fb91906117c3565b925050819055508683600801600082825461071691906117c3565b90915550505b60408051868152891515602082015290810188905289907fdb5c2d89515573ae7357ece97fc6a7f100361845fa20c1177fe87dcd168682fa9060600160405180910390a2505050505050505050565b6000546001600160a01b0316331480159061079157506001546001600160a01b03163314155b156107ae576040516282b42960e81b815260040160405180910390fd5b6107b882826112eb565b5050565b60004282116108115760405162461bcd60e51b815260206004820152601e60248201527f456e642074696d65206d75737420626520696e20746865206675747572650000604482015260640160405180910390fd5b60038054906000610821836117f3565b919050559050604051806101400160405280828152602001336001600160a01b0316815260200187878080601f016020809104026020016040519081016040528093929190818152602001838380828437600092018290525093855250505060208083018890526040808401889052606084018790526080840183905260a0840183905260c0840183905260e0909301829052848252600481529082902083518155908301516001820180546001600160a01b0319166001600160a01b039092169190911790559082015160028201906108fb90826118ab565b50606082015160038201556080820151600482015560a0820151600582015560c082015160068201805460e085015161ffff1990911692151561ff00191692909217610100921515830217905582015160078201556101209091015160089091015560405181907f2b3d4461d76d97d730150804581412d7e950998cdefd4ab7e62888dfd02d3b18906109999033908a908a908a908a908a9061196b565b60405180910390a26002546001600160a01b031615610a1157600254604051630773fdb960e01b8152336004820152602481018390526001600160a01b0390911690630773fdb990604401600060405180830381600087803b1580156109fe57600080fd5b505af1925050508015610a0f575060015b505b95945050505050565b3360009081526006602052604090205460ff16610a49576040516282b42960e81b815260040160405180910390fd5b80600003610a6a57604051631f2a200560e01b815260040160405180910390fd5b60008381526004602052604081206005810154909103610a9d5760405163b0cfa44760e01b815260040160405180910390fd5b600681015460ff1615610ac35760405163aa43cb2d60e01b815260040160405180910390fd5b80600501544210610ae75760405163262b753160e21b815260040160405180910390fd5b6000848152600560209081526040808320338085529252822060018101548154929391928691610b16916117c3565b610b2091906117c3565b90506305f5e100811115610b4757604051631e1d490b60e11b815260040160405180910390fd5b6040516323b872dd60e01b8152336004820152306024820152604481018690527f00000000000000000000000000000000000000000000000000000000000000006001600160a01b0316906323b872dd906064016020604051808303816000875af1158015610bba573d6000803e3d6000fd5b505050506040513d601f19601f82011682018060405250810190610bde91906117d6565b508515610c1f5784826000016000828254610bf991906117c3565b9250508190555084846007016000828254610c1491906117c3565b90915550610c549050565b84826001016000828254610c3391906117c3565b9250508190555084846008016000828254610c4e91906117c3565b90915550505b60408051848152871515602082015290810186905287907fdb5c2d89515573ae7357ece97fc6a7f100361845fa20c1177fe87dcd168682fa9060600160405180910390a250505050505050565b610cc7604051806060016040528060008152602001600081526020016000151581525090565b5060008281526005602090815260408083208484528252918290208251606081018452815481526001820154928101929092526002015460ff161515918101919091525b92915050565b6000546001600160a01b03163314610d3b576040516282b42960e81b815260040160405180910390fd5b600180546001600160a01b0319166001600160a01b0392909216919091179055565b36600060048311610d6f578383610d7c565b610d7c83600481876119c3565b9092509050600080610d908484018561148d565b91509150610d9e82826112eb565b5050505050505050565b60046020526000908152604090208054600182015460028301805492936001600160a01b0390921692610dda90611822565b80601f0160208091040260200160405190810160405280929190818152602001828054610e0690611822565b8015610e535780601f10610e2857610100808354040283529160200191610e53565b820191906000526020600020905b815481529060010190602001808311610e3657829003601f168201915b505050600384015460048501546005860154600687015460078801546008909801549697939692955090935060ff8082169361010090920416918a565b6000828152600460205260409020600681015460ff16610ec35760405163174b639360e11b815260040160405180910390fd5b60008381526005602090815260408083208584529091529020600281015460ff1615610f0257604051630c8d9eab60e31b815260040160405180910390fd5b6006820154600090610100900460ff16610f20578160010154610f23565b81545b905080600003610f465760405163439ece7760e01b815260040160405180910390fd5b6006830154600090610100900460ff16610f64578360080154610f6a565b83600701545b6006850154909150600090610100900460ff16610f8b578460070154610f91565b84600801545b9050600082610fa083866119ed565b610faa9190611a04565b610fb490856117c3565b60028601805460ff1916600117905560405163a9059cbb60e01b8152336004820152602481018290529091506001600160a01b037f0000000000000000000000000000000000000000000000000000000000000000169063a9059cbb906044016020604051808303816000875af1158015611033573d6000803e3d6000fd5b505050506040513d601f19601f8201168201806040525081019061105791906117d6565b50604080518881526020810183905289917f35a68ef119cbc29176ff887e58fe709bfc150c9433fc06772be12ebed5495251910160405180910390a26002546001600160a01b031615610d9e57600254604051634f7e03c360e11b8152336004820152602481018a9052604481018690526001600160a01b0390911690639efc078690606401600060405180830381600087803b1580156110f757600080fd5b505af1925050508015611108575060015b15610d9e575050505050505050565b61117a6040518061014001604052806000815260200160006001600160a01b031681526020016060815260200160008152602001600081526020016000815260200160001515815260200160001515815260200160008152602001600081525090565b6000828152600460209081526040918290208251610140810184528154815260018201546001600160a01b03169281019290925260028101805492939192918401916111c590611822565b80601f01602080910402602001604051908101604052809291908181526020018280546111f190611822565b801561123e5780601f106112135761010080835404028352916020019161123e565b820191906000526020600020905b81548152906001019060200180831161122157829003601f168201915b5050509183525050600382015460208201526004820154604082015260058201546060820152600682015460ff8082161515608084015261010090910416151560a0820152600782015460c082015260089091015460e09091015292915050565b6000546001600160a01b031633146112c9576040516282b42960e81b815260040160405180910390fd5b600280546001600160a01b0319166001600160a01b0392909216919091179055565b6000828152600460205260408120600581015490910361131e5760405163b0cfa44760e01b815260040160405180910390fd5b600681015460ff16156113445760405163aa43cb2d60e01b815260040160405180910390fd5b8060050154421015611369576040516302d56b1d60e21b815260040160405180910390fd5b6006810180548315156101000261ffff1990911617600117905560405183907f4927fe38919783250023d27e65a3e56b6b5c3e49364e51674a41ef08d62460d9906113b990851515815260200190565b60405180910390a2505050565b600080604083850312156113d957600080fd5b50508035926020909101359150565b6000602082840312156113fa57600080fd5b81356001600160a01b038116811461141157600080fd5b9392505050565b801515811461142657600080fd5b50565b6000806000806000806101a080888a03121561144457600080fd5b87359650602088013561145681611418565b955060408801359450606088013593506080880135925080880189101561147c57600080fd5b5060a0870190509295509295509295565b600080604083850312156114a057600080fd5b8235915060208301356114b281611418565b809150509250929050565b60008083601f8401126114cf57600080fd5b50813567ffffffffffffffff8111156114e757600080fd5b6020830191508360208285010111156114ff57600080fd5b9250929050565b60008060008060006080868803121561151e57600080fd5b853567ffffffffffffffff81111561153557600080fd5b611541888289016114bd565b9099909850602088013597604081013597506060013595509350505050565b60008060006060848603121561157557600080fd5b83359250602084013561158781611418565b929592945050506040919091013590565b600080600080604085870312156115ae57600080fd5b843567ffffffffffffffff808211156115c657600080fd5b6115d2888389016114bd565b909650945060208701359150808211156115eb57600080fd5b506115f8878288016114bd565b95989497509550505050565b60006020828403121561161657600080fd5b5035919050565b6000815180845260005b8181101561164357602081850181015186830182015201611627565b506000602082860101526020601f19601f83011685010191505092915050565b8a81526001600160a01b038a1660208201526101406040820181905260009061168e8382018c61161d565b606084019a909a525050608081019690965260a086019490945291151560c0850152151560e0840152610100830152610120909101529392505050565b6020815281516020820152600060208301516116f260408401826001600160a01b03169052565b50604083015161014080606085015261170f61016085018361161d565b915060608501516080850152608085015160a085015260a085015160c085015260c085015161174260e086018215159052565b5060e08501516101006117588187018315159052565b860151610120868101919091529095015193019290925250919050565b60006101a0820190508782528660208301528560408301528460608301528360808301526101008360a0840137979650505050505050565b634e487b7160e01b600052601160045260246000fd5b80820180821115610d0b57610d0b6117ad565b6000602082840312156117e857600080fd5b815161141181611418565b600060018201611805576118056117ad565b5060010190565b634e487b7160e01b600052604160045260246000fd5b600181811c9082168061183657607f821691505b60208210810361185657634e487b7160e01b600052602260045260246000fd5b50919050565b601f8211156118a657600081815260208120601f850160051c810160208610156118835750805b601f850160051c820191505b818110156118a25782815560010161188f565b5050505b505050565b815167ffffffffffffffff8111156118c5576118c561180c565b6118d9816118d38454611822565b8461185c565b602080601f83116001811461190e57600084156118f65750858301515b600019600386901b1c1916600185901b1785556118a2565b600085815260208120601f198616915b8281101561193d5788860151825594840194600190910190840161191e565b508582101561195b5787850151600019600388901b60f8161c191681555b5050505050600190811b01905550565b6001600160a01b038716815260a0602082018190528101859052848660c0830137600060c08683010152600060c0601f19601f8801168301019050846040830152836060830152826080830152979650505050505050565b600080858511156119d357600080fd5b838611156119e057600080fd5b5050820193919092039150565b8082028115828204841417610d0b57610d0b6117ad565b600082611a2157634e487b7160e01b600052601260045260246000fd5b50049056fea26469706673582212207df829d2027189003ecb2deef1662b6405196ee347aa6c99590072ef8ae0ae1764736f6c63430008140033",
  "linkReferences": {},
  "deployedLinkReferences": {}
}