{
  "_format": "hh-sol-artifact-1",
  "contractName": "OracleGovernanceToken",
  "sourceName": "contracts/OracleGovernanceToken.sol",
  "abi": [
    {
      "inputs": [],
      "stateMutability": "nonpayable",
      "type": "constructor"
    },
    {
      "inputs": [],
      "name": "InsufficientAllowance",
      "type": "error"
    },
    {
      "inputs": [],
      "name": "InsufficientBalance",
      "type": "error"
    },
    {
      "inputs": [],
      "name": "InsufficientRewardPool",
      "type": "error"
    },
    {
      "inputs": [],
      "name": "Unauthorized",
      "type": "error"
    },
    {
      "inputs": [],
      "name": "ZeroAddress",
      "type": "error"
    },
    {
      "anonymous": false,
      "inputs": [
        {
          "indexed": true,
          "internalType": "address",
          "name": "owner",
          "type": "address"
        },
        {
          "indexed": true,
          "internalType": "address",
          "name": "spender",
          "type": "address"
        },
        {
          "indexed": false,
          "internalType": "uint256",
          "name": "value",
          "type": "uint256"
        }
      ],
      "name": "Approval",
      "type": "event"
    },
    {
      "anonymous": false,
      "inputs": [
        {
          "indexed": true,
          "internalType": "address",
          "name": "creator",
          "type": "address"
        },
        {
          "indexed": true,
          "internalType": "uint256",
          "name": "marketId",
          "type": "uint256"
        },
        {
          "indexed": false,
          "internalType": "uint256",
          "name": "amount",
          "type": "uint256"
        }
      ],
      "name": "CreatorRewarded",
      "type": "event"
    },
    {
      "anonymous": false,
      "inputs": [
        {
          "indexed": true,
          "internalType": "address",
          "name": "distributor",
          "type": "address"
        }
      ],
      "name": "DistributorSet",
      "type": "event"
    },
    {
      "anonymous": false,
      "inputs": [
        {
          "indexed": true,
          "internalType": "address",
          "name": "participant",
          "type": "address"
        },
        {
          "indexed": true,
          "internalType": "uint256",
          "name": "marketId",
          "type": "uint256"
        },
        {
          "indexed": false,
          "internalType": "uint256",
          "name": "amount",
          "type": "uint256"
        }
      ],
      "name": "ParticipantRewarded",
      "type": "event"
    },
    {
      "anonymous": false,
      "inputs": [
        {
          "indexed": false,
          "internalType": "uint256",
          "name": "creatorReward",
          "type": "uint256"
        },
        {
          "indexed": false,
          "internalType": "uint256",
          "name": "participantRewardCap",
          "type": "uint256"
        }
      ],
      "name": "RewardParamsUpdated",
      "type": "event"
    },
    {
      "anonymous": false,
      "inputs": [
        {
          "indexed": true,
          "internalType": "address",
          "name": "from",
          "type": "address"
        },
        {
          "indexed": true,
          "internalType": "address",
          "name": "to",
          "type": "address"
        },
        {
          "indexed": false,
          "internalType": "uint256",
          "name": "value",
          "type": "uint256"
        }
      ],
      "name": "Transfer",
      "type": "event"
    },
    {
      "inputs": [],
      "name": "TOTAL_SUPPLY",
      "outputs": [
        {
          "internalType": "uint256",
          "name": "",
          "type": "uint256"
        }
      ],
      "stateMutability": "view",
      "type": "function"
    },
    {
      "inputs": [
        {
          "internalType": "address",
          "name": "",
          "type": "address"
        },
        {
          "internalType": "address",
          "name": "",
          "type": "address"
        }
      ],
      "name": "allowance",
      "outputs": [
        {
          "internalType": "uint256",
          "name": "",
          "type": "uint256"
        }
      ],
      "stateMutability": "view",
      "type": "function"
    },
    {
      "inputs": [
        {
          "internalType": "address",
          "name": "spender",
          "type": "address"
        },
        {
          "internalType": "uint256",
          "name": "amount",
          "type": "uint256"
        }
      ],
      "name": "approve",
      "outputs": [
        {
          "internalType": "bool",
          "name": "",
          "type": "bool"
        }
      ],
      "stateMutability": "nonpayable",
      "type": "function"
    },
    {
      "inputs": [
        {
          "internalType": "address",
          "name": "",
          "type": "address"
        }
      ],
      "name": "balanceOf",
      "outputs": [
        {
          "internalType": "uint256",
          "name": "",
          "type": "uint256"
        }
      ],
      "stateMutability": "view",
      "type": "function"
    },
    {
      "inputs": [],
      "name": "creatorReward",
      "outputs": [
        {
          "internalType": "uint256",
          "name": "",
          "type": "uint256"
        }
      ],
      "stateMutability": "view",
      "type": "function"
    },
    {
      "inputs": [],
      "name": "decimals",
      "outputs": [
        {
          "internalType": "uint8",
          "name": "",
          "type": "uint8"
        }
      ],
      "stateMutability": "view",
      "type": "function"
    },
    {
      "inputs": [],
      "name": "distributor",
      "outputs": [
        {
          "internalType": "address",
          "name": "",
          "type": "address"
        }
      ],
      "stateMutability": "view",
      "type": "function"
    },
    {
      "inputs": [],
      "name": "name",
      "outputs": [
        {
          "internalType": "string",
          "name": "",
          "type": "string"
        }
      ],
      "stateMutability": "view",
      "type": "function"
    },
    {
      "inputs": [],
      "name": "owner",
      "outputs": [
        {
          "internalType": "address",
          "name": "",
          "type": "address"
        }
      ],
      "stateMutability": "view",
      "type": "function"
    },
    {
      "inputs": [],
      "name": "participantRewardCap",
      "outputs": [
        {
          "internalType": "uint256",
          "name": "",
          "type": "uint256"
        }
      ],
      "stateMutability": "view",
      "type": "function"
    },
    {
      "inputs": [
        {
          "internalType": "address",
          "name": "creator",
          "type": "address"
        },
        {
          "internalType": "uint256",
          "name": "marketId",
          "type": "uint256"
        }
      ],
      "name": "rewardCreator",
      "outputs": [],
      "stateMutability": "nonpayable",
      "type": "function"
    },
    {
      "inputs": [
        {
          "internalType": "address",
          "name": "participant",
          "type": "address"
        },
        {
          "internalType": "uint256",
          "name": "marketId",
          "type": "uint256"
        },
        {
          "internalType": "uint256",
          "name": "stakeAmount",
          "type": "uint256"
        }
      ],
      "name": "rewardParticipant",
      "outputs": [],
      "stateMutability": "nonpayable",
      "type": "function"
    },
    {
      "inputs": [
        {
          "internalType": "address",
          "name": "_distributor",
          "type": "address"
        }
      ],
      "name": "setDistributor",
      "outputs": [],
      "stateMutability": "nonpayable",
      "type": "function"
    },
    {
      "inputs": [
        {
          "internalType": "uint256",
          "name": "_creatorReward",
          "type": "uint256"
        },
        {
          "internalType": "uint256",
          "name": "_participantRewardCap",
          "type": "uint256"
        }
      ],
      "name": "setRewardParams",
      "outputs": [],
      "stateMutability": "nonpayable",
      "type": "function"
    },
    {
      "inputs": [],
      "name": "symbol",
      "outputs": [
        {
          "internalType": "string",
          "name": "",
          "type": "string"
        }
      ],
      "stateMutability": "view",
      "type": "function"
    },
    {
      "inputs": [],
      "name": "totalSupply",
      "outputs": [
        {
          "internalType": "uint256",
          "name": "",
          "type": "uint256"
        }
      ],
      "stateMutability": "view",
      "type": "function"
    },
    {
      "inputs": [
        {
          "internalType": "address",
          "name": "to",
          "type": "address"
        },
        {
          "internalType": "uint256",
          "name": "amount",
          "type": "uint256"
        }
      ],
      "name": "transfer",
      "outputs": [
        {
          "internalType": "bool",
          "name": "",
          "type": "bool"
        }
      ],
      "stateMutability": "nonpayable",
      "type": "function"
    },
    {
      "inputs": [
        {
          "internalType": "address",
          "name": "from",
          "type": "address"
        },
        {
          "internalType": "address",
          "name": "to",
          "type": "address"
        },
        {
          "internalType": "uint256",
          "name": "amount",
          "type": "uint256"
        }
      ],
      "name": "transferFrom",
      "outputs": [
        {
          "internalType": "bool",
          "name": "",
          "type": "bool"
        }
      ],
      "stateMutability": "nonpayable",
      "type": "function"
    },
    {
      "inputs": [
        {
          "internalType": "uint256",
          "name": "amount",
          "type": "uint256"
        }
      ],
      "name": "withdrawReserve",
      "outputs": [],
      "stateMutability": "nonpayable",
      "type": "function"
    }
  ],
  "bytecode": "0x608060405268056bc75e2d6310000060055568056bc75e2d6310000060065534801561002a57600080fd5b50600380546001600160a01b031916331790556100513069d3c21bcecceda1000000610056565b610105565b8060008082825461006791906100de565b90915550506001600160a01b038216600090815260016020526040812080548392906100949084906100de565b90915550506040518181526001600160a01b038316906000907fddf252ad1be2c89b69c2b068fc378daa952ba7f163c4a11628f55a4df523b3ef9060200160405180910390a35050565b808201808211156100ff57634e487b7160e01b600052601160045260246000fd5b92915050565b6109ec806101146000396000f3fe608060405234801561001057600080fd5b50600436106101215760003560e01c806370a08231116100ad5780639efc0786116100715780639efc0786146102ad578063a9059cbb146102c0578063bfe10928146102d3578063d8fd1ed9146102e6578063dd62ed3e146102ef57600080fd5b806370a082311461021c57806375619ab51461023c5780638da5cb5b1461024f578063902d55a51461027a57806395d89b411461028b57600080fd5b80631c31e751116100f45780631c31e751146101c057806323b872dd146101d3578063313ce567146101e65780633e696f38146102005780635ec133161461021357600080fd5b806306fdde03146101265780630773fdb914610171578063095ea7b31461018657806318160ddd146101a9575b600080fd5b61015b604051806040016040528060168152602001754c6f63616c4f7261636c6520476f7665726e616e636560501b81525081565b60405161016891906107e3565b60405180910390f35b61018461017f36600461084d565b61031a565b005b61019961019436600461084d565b6103e4565b6040519015158152602001610168565b6101b260005481565b604051908152602001610168565b6101846101ce366004610877565b610451565b6101996101e1366004610899565b6104c2565b6101ee601281565b60405160ff9091168152602001610168565b61018461020e3660046108d5565b610555565b6101b260065481565b6101b261022a3660046108ee565b60016020526000908152604090205481565b61018461024a3660046108ee565b61059a565b600354610262906001600160a01b031681565b6040516001600160a01b039091168152602001610168565b6101b269d3c21bcecceda100000081565b61015b604051806040016040528060038152602001624c4f4760e81b81525081565b6101846102bb366004610910565b610635565b6101996102ce36600461084d565b610732565b600454610262906001600160a01b031681565b6101b260055481565b6101b26102fd366004610943565b600260209081526000928352604080842090915290825290205481565b6004546001600160a01b0316331480159061034057506003546001600160a01b03163314155b1561035d576040516282b42960e81b815260040160405180910390fd5b6005543060009081526001602052604090205481111561039057604051633270436b60e01b815260040160405180910390fd5b61039b308483610748565b81836001600160a01b03167f025e07f24d161088f2214e5aebe4556904e5db8d0ea9012d86c397ecaf8fdd70836040516103d791815260200190565b60405180910390a3505050565b3360008181526002602090815260408083206001600160a01b038716808552925280832085905551919290917f8c5be1e5ebec7d5bd14f71427d1e84f3dd0314c0f7b2291e5b200ac8c7c3b9259061043f9086815260200190565b60405180910390a35060015b92915050565b6003546001600160a01b0316331461047b576040516282b42960e81b815260040160405180910390fd5b6005829055600681905560408051838152602081018390527f5b8bece90d308e5de1c051d2d5b819dafa1ce504a0dbefa9ca4a023d71748474910160405180910390a15050565b6001600160a01b0383166000908152600260209081526040808320338452909152812054600019811461053f5782811015610510576040516313be252b60e01b815260040160405180910390fd5b61051a838261098c565b6001600160a01b03861660009081526002602090815260408083203384529091529020555b61054a858585610748565b506001949350505050565b6003546001600160a01b0316331461057f576040516282b42960e81b815260040160405180910390fd5b6003546105979030906001600160a01b031683610748565b50565b6003546001600160a01b031633146105c4576040516282b42960e81b815260040160405180910390fd5b6001600160a01b0381166105eb5760405163d92e233d60e01b815260040160405180910390fd5b600480546001600160a01b0319166001600160a01b0383169081179091556040517f86719c518c7d99ac94b3d405d462ea876ba5cd0a978461dc9a7c9862a948588690600090a250565b6004546001600160a01b0316331480159061065b57506003546001600160a01b03163314155b15610678576040516282b42960e81b815260040160405180910390fd5b60006106898264e8d4a5100061099f565b905060065481111561069a57506006545b806000036106ad5750670de0b6b3a76400005b306000908152600160205260409020548111156106dd57604051633270436b60e01b815260040160405180910390fd5b6106e8308583610748565b82846001600160a01b03167f65ac6317fe61b9d6677cf23b1220e67785651194723e4f3f23b7e955d3ce56d38360405161072491815260200190565b60405180910390a350505050565b600061073f338484610748565b50600192915050565b6001600160a01b03831660009081526001602052604090205481111561078157604051631e9acf1760e31b815260040160405180910390fd5b6001600160a01b03808416600081815260016020526040808220805486900390559285168082529083902080548501905591517fddf252ad1be2c89b69c2b068fc378daa952ba7f163c4a11628f55a4df523b3ef906103d79085815260200190565b600060208083528351808285015260005b81811015610810578581018301518582016040015282016107f4565b506000604082860101526040601f19601f8301168501019250505092915050565b80356001600160a01b038116811461084857600080fd5b919050565b6000806040838503121561086057600080fd5b61086983610831565b946020939093013593505050565b6000806040838503121561088a57600080fd5b50508035926020909101359150565b6000806000606084860312156108ae57600080fd5b6108b784610831565b92506108c560208501610831565b9150604084013590509250925092565b6000602082840312156108e757600080fd5b5035919050565b60006020828403121561090057600080fd5b61090982610831565b9392505050565b60008060006060848603121561092557600080fd5b61092e84610831565b95602085013595506040909401359392505050565b6000806040838503121561095657600080fd5b61095f83610831565b915061096d60208401610831565b90509250929050565b634e487b7160e01b600052601160045260246000fd5b8181038181111561044b5761044b610976565b808202811582820484141761044b5761044b61097656fea264697066735822122079c997be7866004276e751d120b8f4176aadce42f34e0582d69d679a5def8a0b64736f6c63430008140033",
  "linkReferences": {},
  "deployedLinkReferences": {}
}